:100000000C942A000C9434000C9434000C943400AA
:100010000C9434000C9434000C9434000C94340090
:100020000C9434000C9434000C9434000C94340080
:100030000C9434000C9434000C9434000C94340070
:100040000C9434000C9434000C9434000C94340060
:100050000C94340011241FBECFE5D8E0DEBFCDBF25
:100060000E9441000C9467000C940000A29A8B9AA5
:100070000895AA9A0895AA980895939A089593982E
:1000800008950E945E000E9436000E946300823341
:1000900061F018F4813331F0F8CF833349F08433C1
:1000A00051F0F3CF0E943900F0CF0E943B00EDCF1A
:1000B0000E943D00EACF0E943F00E7CFBE9A6E9AB1
:1000C0006B986A980895779BFECF8FB10895F89446
:0200D000FFCF60
:00000001FF
