:100000000C942A000C9434000C9434000C943400AA
:100010000C9434000C9434000C9434000C94340090
:100020000C9434000C9434000C9434000C94340080
:100030000C9434000C9434000C9434000C94340070
:100040000C9434000C9434000C9434000C94340060
:100050000C94340011241FBECFE5D8E0DEBFCDBF25
:100060000E9440000C94B4000C94000060E875E21B
:1000700080E090E00E946E0008950E94B000089514
:100080000E9436000E9461000E943D00823469F0A7
:1000900018F4813431F0F8CF833459F0843469F0A6
:1000A000F3CF81E40E946A00EFCF82E40E946A00ED
:1000B000EBCF81E40E946A00E7CF84E40E946A00EB
:1000C000E3CF87B3806B87BB8DB180658DB96B98AB
:1000D0006A9808958FB9779BFECF08952AB1286159
:1000E0002AB920B52F7720BD603C22E17207810537
:1000F000910519F48FEC89B922C0603825E27207A6
:100100008105910519F487E689B919C061152BE4B9
:1001100072078105910519F483E389B910C060382D
:1001200020E772078105910519F482E289B907C0B9
:100130006115724C8140910511F488E089B980B550
:10014000806880BD80B58F7B80BD80B58F7C80BD91
:1001500080B5877F80BD529880B5866080BD089548
:0C0160005F9BFECF8CB10895F894FFCF98
:00000001FF
